{
  "contractName": "bye",
  "abi": [
    {
      "inputs": [],
      "stateMutability": "nonpayable",
      "type": "constructor"
    },
    {
      "inputs": [],
      "name": "add",
      "outputs": [
        {
          "internalType": "uint32",
          "name": "",
          "type": "uint32"
        }
      ],
      "stateMutability": "view",
      "type": "function"
    }
  ],
  "bytecode": "0x608060405234801561000f575f80fd5b505f805f6101000a81548163ffffffff021916908363ffffffff16021790555061013e8061003c5f395ff3fe608060405234801561000f575f80fd5b5060043610610029575f3560e01c80634f2be91f1461002d575b5f80fd5b61003561004b565b604051610042919061008b565b60405180910390f35b5f60035f8054906101000a900463ffffffff1661006891906100d1565b905090565b5f63ffffffff82169050919050565b6100858161006d565b82525050565b5f60208201905061009e5f83018461007c565b92915050565b7f4e487b71000000000000000000000000000000000000000000000000000000005f52601160045260245ffd5b5f6100db8261006d565b91506100e68361006d565b9250828201905063ffffffff811115610102576101016100a4565b5b9291505056fea264697066735822122063ffe6df7695d35f7fe460d31ddb471a180970b8b5dde0e6a158de14faaca6fb64736f6c63430008150033",
  "immutableReferences": {},
  "source": "// SPDX-License-Identifier: MIT\npragma solidity >=0.4.22 <0.9.0;\n\ncontract bye {\n   uint32 a;\n  constructor() public {\n    a=0;\n  }\n  function add() public view returns(uint32){\n    return (a+3);\n  }\n}\n",
  "sourcePath": "D:\\CS\\Blockchain\\hello\\contracts\\bye.sol",
  "compiler": {
    "name": "solc",
    "version": "0.8.21+commit.d9974bed.Emscripten.clang"
  },
  "schemaVersion": "3.4.16",
  "updatedAt": "2024-02-03T16:13:02.231Z",
  "devdoc": {
    "kind": "dev",
    "methods": {},
    "version": 1
  },
  "userdoc": {
    "kind": "user",
    "methods": {},
    "version": 1
  }
}