{
  "contractName": "hello",
  "abi": [
    {
      "inputs": [],
      "name": "getNum",
      "outputs": [
        {
          "internalType": "uint256",
          "name": "",
          "type": "uint256"
        }
      ],
      "stateMutability": "view",
      "type": "function"
    }
  ],
  "bytecode": "0x608060405260175f55348015610013575f80fd5b5060af806100205f395ff3fe6080604052348015600e575f80fd5b50600436106026575f3560e01c806367e0badb14602a575b5f80fd5b60306044565b604051603b91906062565b60405180910390f35b5f8054905090565b5f819050919050565b605c81604c565b82525050565b5f60208201905060735f8301846055565b9291505056fea26469706673582212205922e04ef33102211dd6550ba7ad6f79a846daf3164d5e789d70dc79f06aa42764736f6c63430008150033",
  "immutableReferences": {},
  "source": "// SPDX-License-Identifier: MIT\npragma solidity >=0.7.0;\n\ncontract hello {\n    uint num = 23;\n    function getNum() public view returns(uint){\n      return num;\n    }\n}\n",
  "sourcePath": "D:\\CS\\Blockchain\\hello\\contracts\\hello.sol",
  "compiler": {
    "name": "solc",
    "version": "0.8.21+commit.d9974bed.Emscripten.clang"
  },
  "schemaVersion": "3.4.16",
  "updatedAt": "2024-02-03T16:13:02.234Z",
  "devdoc": {
    "kind": "dev",
    "methods": {},
    "version": 1
  },
  "userdoc": {
    "kind": "user",
    "methods": {},
    "version": 1
  }
}